:020000040800F2
:10000000700800204D020008150300080D030008C9
:100010001103000807030008ED03000800000000BA
:1000200000000000000000000000000019030008AC
:100030000B03000800000000170300081B03000862
:1000400067020008670200086702000867020008EC
:1000500067020008670200086702000867020008DC
:1000600067020008670200086702000867020008CC
:1000700067020008670200086702000867020008BC
:1000800067020008670200086702000867020008AC
:10009000670200086702000867020008670200089C
:1000A000670200086702000867020008670200088C
:1000B000670200086702000867020008670200087C
:1000C000670200086702000867020008670200086C
:1000D000670200086702000867020008670200085C
:1000E000670200086702000867020008670200084C
:1000F000670200086702000867020008670200083C
:10010000670200086702000867020008670200082B
:10011000670200086702000867020008670200081B
:10012000670200086702000867020008670200080B
:1001300067020008670200086702000867020008FB
:1001400067020008670200086702000867020008EB
:1001500067020008670200086702000867020008DB
:1001600067020008670200086702000867020008CB
:10017000670200086702000867020008000000002C
:1001800067020008670200086702000867020008AB
:10019000670200086702000867020008000000000C
:1001A00067020008670200086702000800F002F812
:1001B00000F03CF80AA090E8000C82448344AAF1C5
:1001C0000107DA4501D100F031F8AFF2090EBAE8C3
:1001D0000F0013F0010F18BFFB1A43F0010318477B
:1001E0004005000060050000103A24BF78C878C1BF
:1001F000FAD8520724BF30C830C144BF04680C602D
:10020000704700000023002400250026103A28BF74
:1002100078C1FBD8520728BF30C148BF0B60704778
:100220001FB500F077FA1FBD10B510BD00F031F812
:100230001146FFF7F5FF00F027FA00F04FF803B47E
:10024000FFF7F2FF03BC00F057F8000009488047B1
:1002500009480047FEE7FEE7FEE7FEE7FEE7FEE7A8
:10026000FEE7FEE7FEE7FEE704480549054A064BC0
:100270007047000025030008AD0100087000002051
:100280007008002070040020700400207047704740
:100290007047754600F02CF8AE4605006946534697
:1002A00020F00700854618B020B5FFF7DDFFBDE858
:1002B00020404FF000064FF000074FF000084FF0CD
:1002C000000B21F00701AC46ACE8C009ACE8C0095E
:1002D000ACE8C009ACE8C0098D46704710B50446CB
:1002E000AFF300802046BDE81040FFF7A8BF000034
:1002F000004870470C00002001491820ABBEFEE703
:1003000026000200704700BFFEE7704700BFFEE70F
:1003100000BFFEE770477047704710B500F090F8D7
:1003200010BD000008B52D48006840F470002B494E
:1003300008602B48006840F00100294908602848FF
:100340000830006840F0800025490831086000202E
:10035000009002E00098401C00904CF25031009850
:100360008842F7D31E480830006840F090001C49CE
:10037000083108600020009002E00098401C0090C6
:100380004CF2503100988842F7D315480830006885
:1003900020F0030012490831086011480068114933
:1003A00008400F4908600846006820F48020086073
:1003B00000200B490831086000BF09480830006878
:1003C00000200028F9D108480549091D08600020CF
:1003D00003490C31086000F05DF808BD88ED00E0CD
:1003E00000380240FFFFF6FE1030002400BFFEE799
:1003F00010B5124800684FF47A71B0FBF1F4601E3A
:10040000B0F1807F01D301200FE0601E4FF0E021AA
:1004100048610F214FF0FF3000F028F800204FF026
:10042000E021886107200861002008B100BFFEE7D5
:100430000021481E00F01AF810BD0000080000203E
:100440000448006820B103480068401E0149086064
:1004500070470000000000200349086000BF024907
:1004600009680029FBD170470000002010B5002862
:1004700007DA0A07140E054A00F00F031B1FD454B5
:1004800003E00A07130E024A135410BD18ED00E0F2
:1004900000E400E010B500F001F810BD00200021DC
:1004A0003A4A126842F48032384B1A6000BF401C4E
:1004B000364A126802F4003119B94FF6FF729042C1
:1004C000F5D1324A126802F400320AB900BFFEE7E1
:1004D0002E4A4032126842F080522C4B40331A6050
:1004E0002B4A126842F44042294B1A60274A0832CC
:1004F0001268264B08331A601A46126842F400420A
:100500001A601A46126842F4A0521A60214A1B1F50
:100510001A601A1F126842F080721B1F1A6000BF17
:100520001A4A126802F00072002AF9D0184A1268BA
:1005300042F48032164B1A6000BF154A526802F42A
:100540008032002AF9D0124A126842F40032104B6D
:100550001A6000BF0E4A526802F40032002AF9D035
:100560000A4A0832126822F00302084B08331A6064
:100570001A46126842F002021A6000BF034A0832AB
:10058000126802F00802002AF8D0704700380240D2
:10059000007000401964400910B5044640F603405D
:1005A00000F0A6F8802300220121054800F00FF892
:1005B000802302220021024800F030F810BD000024
:1005C000000C02400AB1816100E081627047F0B521
:1005D00004460D4616462168E268002019E001270E
:1005E00087401F409FB14FEA400C032707FA0CF7E2
:1005F000B943470005FA07F739434FEA400C032790
:1006000007FA0CF7BA43470006FA07F73A43471CC4
:10061000B8B21028E3D32160E260F0BDF0B50C461B
:100620001546012C03D146681E43466002E0466829
:100630009E434660826800210DE001268E401E40E8
:100640003EB14F000326BE40B2434E0005FA06F607
:1006500032434E1CB1B21029EFD38260F0BD0000CE
:1006600010B540F6044000F043F8082300220121B1
:100670000448FFF7ACFF0823022200210148FFF7DE
:10068000CDFF10BD00100240FFF7B2FE1548FFF786
:1006900083FFFFF7E5FF23E04FF47A70FFF7DCFEFE
:1006A000012280211048FFF78DFF4FF47A70FFF789
:1006B000D3FE002280210C48FFF784FF4FF47A70AC
:1006C000FFF7CAFE012208210848FFF77BFF4FF41D
:1006D0007A70FFF7C1FE002208210448FFF772FF7D
:1006E000DAE7000004000020000C02400010024085
:1006F000074A02EB9011D1F8001800F01F03012205
:100700009A401143024B03EB9012C2F80018704755
:10071000003002404FF04070E1EE100A70470000D8
:1007200040070008000000200C000000E80100085D
:100730004C0700080C0000206408000004020008B8
:0C074000000000000000000000C2EB0BF5
:04000005080001AD41
:00000001FF
