:020000040800F2
:1000000004020020CD1B0008A5010008B301000870
:10001000B9010008BF010008C50100080000000088
:10002000000000000000000000000000CB010008FC
:10003000D901000800000000E7010008F5010008F0
:100040001D1C00081D1C00081D1C00081D1C0008AC
:100050001D1C00081D1C00081D1C00081D1C00089C
:100060001D1C00081D1C00081D1C00081D1C00088C
:100070001D1C00081D1C00081D1C00081D1C00087C
:100080001D1C00081D1C00081D1C00081D1C00086C
:100090001D1C00081D1C00081D1C00081D1C00085C
:1000A0001D1C00081D1C00081D1C00081D1C00084C
:1000B0001D1C00081D1C00081D1C00081D1C00083C
:1000C0001D1C00081D1C00081D1C00081D1C00082C
:1000D0001D1C00081D1C00081D1C00081D1C00081C
:1000E0001D1C00081D1C00081D1C00081D1C00080C
:1000F0001D1C00081D1C00081D1C00081D1C0008FC
:100100001D1C00081D1C00081D1C00081D1C0008EB
:100110001D1C00081D1C00081D1C00081D1C0008DB
:100120001D1C00081D1C00081D1C00081D1C0008CB
:100130001D1C00081D1C00081D1C00081D1C0008BB
:100140001D1C00081D1C00081D1C00081D1C0008AB
:100150001D1C00081D1C00081D1C00081D1C00089B
:100160001D1C00081D1C00081D1C00081D1C00088B
:100170001D1C00081D1C0008000000001D1C0008BC
:100180001D1C00081D1C00081D1C00081D1C00086B
:100190001D1C00081D1C00081D1C00081D1C00085B
:1001A0001D1C000880B400AF00BFBD465DF8047B95
:1001B000704780B400AFFEE780B400AFFEE780B4C4
:1001C00000AFFEE780B400AFFEE780B400AF00BF31
:1001D000BD465DF8047B704780B400AF00BFBD46EC
:1001E0005DF8047B704780B400AF00BFBD465DF88A
:1001F000047B704780B500AF00F09AF800BF80BD67
:1002000080B500AF00F064F800F0A4F8642000F0BE
:1002100079F801224FF40041064800F01FFA6420EB
:1002200000F070F800224FF40041024800F016FA86
:10023000ECE700BF0008024080B483B000AF034683
:100240003960FB7197F90730002B0BDA3B68DAB2A3
:100250000C49FB7903F00F03043B1201D2B20B44AB
:100260001A7609E03B68DAB2074997F907301201BC
:10027000D2B20B4483F8002300BF0C37BD465DF8B3
:10028000047B704700ED00E000E100E080B582B043
:1002900000AF78607B68013BB3F1807F01D301231D
:1002A0000FE00A4A7B68013B53600F214FF0FF309B
:1002B000FFF7C2FF054B00229A60044B07221A6029
:1002C000002318460837BD4680BD00BF10E000E09F
:1002D00080B500AF094B1B68094AA2FB03239B09A9
:1002E0001846FFF7D3FF0346002B00D0FEE700219E
:1002F0004FF0FF30FFF7A0FF00BF80BD00000020DF
:10030000D34D621080B483B000AF7860074A7B6839
:10031000136000BF054B1B68002BFBD100BF00BF63
:100320000C37BD465DF8047B704700BF0402002017
:1003300080B400AF064B1B68002B04D0044B1B6835
:10034000013B034A136000BFBD465DF8047B704764
:100350000402002080B500AF40F6024000F0EAFA47
:100360004FF4004300220121054800F0BBF84FF490
:10037000004302220021024800F002F900BF80BDC4
:100380000008024080B582B000AF78607B684C4ABC
:10039000934200F087807B68494A934200F28B8049
:1003A0007B68484A934274D07B68464A934200F285
:1003B00082807B68444A934262D07B68424A93427F
:1003C00079D87B68414A934251D07B683F4A934237
:1003D00071D87B683E4A934240D07B683C4A934246
:1003E00069D87B683B4A93422FD07B68394A934255
:1003F00061D87B68384A93421ED07B68364A934264
:1004000059D87B68354A934204D07B68344A93427A
:1004100009D050E04FF4806000F01CFB4FF4806086
:1004200000F03BFB48E040F2014000F013FB40F2DB
:10043000014000F032FB3FE040F2024000F00AFBD6
:1004400040F2024000F029FB36E040F2034000F0A9
:1004500001FB40F2034000F020FB2DE040F204409D
:1004600000F0F8FA40F2044000F017FB24E040F2FC
:10047000054000F0EFFA40F2054000F00EFB1BE0F3
:1004800040F2064000F0E6FA40F2064000F005FBBC
:1004900012E040F2074000F0DDFA40F2074000F0C1
:1004A000FCFA09E04FF4816000F0D4FA4FF4816067
:1004B00000F0F3FA00E000BF00BF0837BD4680BD82
:1004C00000200240001C02400018024000140240BC
:1004D00000100240000C02400008024000000240F0
:1004E0000004024080B489B000AFF860B9607A605F
:1004F0003B60FB681B68BB61FB680C331B687B615E
:100500000023FB832BE0FB8B01229A403B681340C6
:10051000002B21D0FB8B5B00032202FA03F3DB43A9
:10052000BA691340BB61FB8B5B00BA6802FA03F344
:10053000BA691343BB61FB8B5B00032202FA03F32E
:10054000DB437A6913407B61FB8B5B007A6802FABC
:1005500003F37A6913437B61FB8B0133FB83FB8BD2
:100560000F2BD0D9FB68BA691A60FB680C331A46A6
:100570007B69136000BF2437BD465DF8047B70477C
:1005800080B487B000AFF8607A603B600B46FB72C6
:10059000FB7A012B09D1FB6804331A68FB6804332A
:1005A00019463B6813430B6008E0FB6804331A6884
:1005B0003B68DB43F968043113400B60FB68083388
:1005C0001B683B610023FB821AE0FB8A01229A40F0
:1005D0003B681340002B10D0FB8A5B00032202FA19
:1005E00003F3DB433A6913403B61FB8A5B007A68A3
:1005F00002FA03F33A6913433B61FB8A0133FB823E
:10060000FB8A0F2BE1D9FB6808331A463B6913605C
:1006100000BF1C37BD465DF8047B704780B483B0D3
:1006200000AF786039607B6818331A463B68136006
:1006300000BF0C37BD465DF8047B704780B483B0C3
:1006400000AF786039607B6828331A463B681360D6
:1006500000BF0C37BD465DF8047B704780B485B0A1
:1006600000AFF860B9601346FB71FB79002B05D031
:10067000FB6818331A46BB68136004E0FB68283334
:100680001A46BB68136000BF1437BD465DF8047B93
:10069000704780B483B000AF78600B467B807B6886
:1006A00014331A467B88136000BF0C37BD465DF8D3
:1006B000047B704780B483B000AF786039607B689A
:1006C00010331A683B681340002B01D0012300E06F
:1006D000002318460C37BD465DF8047B704780B494
:1006E00083B000AF78607B6810331B689BB21846FC
:1006F0000C37BD465DF8047B704780B483B000AF13
:10070000786039607B6814331A683B681340002BAB
:1007100001D0012300E0002318460C37BD465DF8E8
:10072000047B704780B483B000AF78607B6814337B
:100730001B689BB218460C37BD465DF8047B7047BA
:1007400080B489B000AFF860B9607A60FB6820338C
:100750001B68BB61FB6824331B687B610023FB8340
:100760001AE0FB8B01229A407B681340002B10D0CB
:10077000FB8B9B000F2202FA03F3DB43BA691340A1
:10078000BB61FB8B9B00BA6802FA03F3BA6913439F
:10079000BB61FB8B0133FB83FB8B072BE1D9082368
:1007A000FB831CE0FB8B01229A407B681340002BEB
:1007B00012D0FB8B083B9B000F2202FA03F3DB43B2
:1007C0007A6913407B61FB8B083B9B00BA6802FA95
:1007D00003F37A6913437B61FB8B0133FB83FB8B50
:1007E0000F2BDFD9FB6820331A46BB691360FB6807
:1007F00024331A467B69136000BF2437BD465DF879
:10080000047B704780B485B000AF786039604FF4E6
:100810008033FB60FA683B681343FB607B681C33E2
:100820001A46FB6813607B681C331A463B681360EA
:100830007B681C331A46FB6813607B681C331B689B
:10084000FB607B681C331B68FB6000BF1437BD4630
:100850005DF8047B704780B483B000AF7860396086
:100860007B682C331A463B68136000BF0C37BD46CB
:100870005DF8047B704780B483B000AF78607B681C
:100880002C331A464FF6FF73136000BF0C37BD467A
:100890005DF8047B704700BF80B500AF1C4B1B6840
:1008A0001B4A43F001031360002000F013FC194BB6
:1008B0001B68184A23F003031360154B1B68144A86
:1008C00023F0A85323F410231360114B1B68104A24
:1008D00023F4802313600F4B1B680E4A03F4437309
:1008E00013600D4B0D4A1A600D4B0E4A1A600E4BE9
:1008F0000A4A1A600D4B00221A600D4B1B680C4A05
:1009000023F0817323F48033136000BF80BD00BFE8
:1009100000380240083802400438024010300024F9
:100920008438024000300024883802400C380240ED
:100930008C38024080B483B000AF0346FB80FB8854
:100940009B099BB203F1804303F50E331968FB88C2
:1009500003F01F0301229A40FB889B099BB203F11D
:10096000804303F50E33184641EA0203036000BFDB
:100970000C37BD465DF8047B704780B483B000AF90
:100980000346FB80FB889B099BB203F1804303F580
:100990000E331968FB8803F01F03012202FA03F3E8
:1009A000DA43FB889B099BB203F1804303F50E33C6
:1009B000184601EA0203036000BF0C37BD465DF82C
:1009C000047B704780B483B000AF0346FB80FB8894
:1009D0009B099BB203F1804303F50E331968FB8832
:1009E00003F01F0301229A40FB889B099BB203F18D
:1009F000804303F50E33184641EA0203036000BF4B
:100A00000C37BD465DF8047B704780B483B000AFFF
:100A10000346FB80FB889B099BB203F1804303F5EF
:100A20000E331968FB8803F01F03012202FA03F357
:100A3000DA43FB889B099BB203F1804303F50E3335
:100A4000184601EA0203036000BF0C37BD465DF89B
:100A5000047B704780B483B000AF0346FB80FB8803
:100A60009B099BB203F1804303F50E331968FB88A1
:100A700003F01F0301229A40FB889B099BB203F1FC
:100A8000804303F50E33184641EA0203036000BFBA
:100A90000C37BD465DF8047B704780B483B000AF6F
:100AA0000346FB80FB889B099BB203F1804303F55F
:100AB0000E331968FB8803F01F03012202FA03F3C7
:100AC000DA43FB889B099BB203F1804303F50E33A5
:100AD000184601EA0203036000BF0C37BD465DF80B
:100AE000047B704780B400AF054B1B68044A43F495
:100AF0008033136000BFBD465DF8047B704700BFC4
:100B00007038024080B400AF054B1B68044A23F4E0
:100B10008033136000BFBD465DF8047B704700BFA3
:100B20007038024080B485B000AF7860084B1B6815
:100B3000FB60FB6823F00303FB600549FA687B68F0
:100B400013430B6000BF1437BD465DF8047B70474C
:100B50000838024080B400AF044B1B6803F00C035C
:100B60001846BD465DF8047B704700BF0838024058
:100B700080B485B000AF7860084B1B68FB60FB68F1
:100B800023F0F003FB600549FA687B6813430B60B0
:100B900000BF1437BD465DF8047B7047083802403B
:100BA00080B485B000AF7860084B1B68FB60FB68C1
:100BB00023F4E053FB600549FA687B6813430B603C
:100BC00000BF1437BD465DF8047B7047083802400B
:100BD00080B485B000AF7860084B1B68FB60FB6891
:100BE00023F46043FB600549FA687B6813430B609C
:100BF00000BF1437BD465DF8047B704708380240DB
:100C000080B485B000AF786039600A4B1B68FB6028
:100C1000FB6823F0EC63FB60FA687B681A430549C4
:100C20003B6813430B6000BF1437BD465DF8047B7F
:100C3000704700BF0838024080B485B000AF7860CC
:100C400039600A4B1B68FB60FB6823F07843FB604C
:100C5000FA687B681A4305493B6813430B6000BF81
:100C60001437BD465DF8047B704700BF083802406A
:100C700080B487B000AFF860B9607A603B60002351
:100C80007B61264B1B683B613B69002B0BDA3B69A0
:100C900003F08043002B03D07B6907337B6102E0C4
:100CA0007B6905337B61BB68012B2FD9BB683F2B68
:100CB0002CD87B6940337A689A4227D37B68B3F596
:100CC000FA7F23D83B68022B08D03B68042B05D061
:100CD0003B68062B02D03B68082B17D13B6A012BDF
:100CE00014D93B6A0F2B11D87B689A01BB681A4351
:100CF0003B685B08013B1B041A43FB681A433B6AD1
:100D00001B06074913430B60012300E0002318462C
:100D10001C37BD465DF8047B704700BF8038024039
:100D20000438024080B483B000AF786039607B68DB
:100D3000312B12D97B68B3F5FA7F0ED83B68012BB3
:100D40000BD93B68072B08D87B689A013B681B07C7
:100D5000054913430B60012300E0002318460C37BC
:100D6000BD465DF8047B70478438024080B485B08E
:100D700000AFF860B9607A60FB68312B23D9FB685B
:100D8000B3F5FA7F1FD8BB68022B08D0BB68042BD1
:100D900005D0BB68062B02D0BB68082B13D17B683B
:100DA000012B10D97B68072B0DD8FB689A01BB6813
:100DB0005B08013B1B041A437B681B07054913436F
:100DC0000B60012300E0002318461437BD465DF890
:100DD000047B70478838024080B485B000AF7860EB
:100DE000084B1B68FB60FB6823F44073FB600549FC
:100DF000FA687B6813430B6000BF1437BD465DF88B
:100E0000047B70477038024080B485B000AF7860D2
:100E1000084B1B68FB60FB6823F4F813FB60054973
:100E2000FA687B6813430B6000BF1437BD465DF85A
:100E3000047B70470838024080B485B000AF78600A
:100E4000084B1B68FB60FB6823F40003FB6005494B
:100E5000FA687B6813430B6000BF1437BD465DF82A
:100E6000047B70470838024080B485B000AF7860DA
:100E7000084B1B68FB60FB6823F00103FB6005491E
:100E8000FA687B6813430B6000BF1437BD465DF8FA
:100E9000047B7047C038024080B485B000AF7860F2
:100EA000084B1B68FB60FB6823F00203FB600549ED
:100EB000FA687B6813430B6000BF1437BD465DF8CA
:100EC000047B7047C038024080B483B000AF7860C4
:100ED0007B686FF08072934206D1094B1A6808490B
:100EE0007B6813400B6005E0054B1A6804497B687A
:100EF00013430B6000BF0C37BD465DF8047B7047A1
:100F00008C38024080B485B000AF7860084B1B6815
:100F1000FB60FB6823F44033FB600549FA687B689B
:100F200013430B6000BF1437BD465DF8047B704768
:100F30008C38024080B483B000AF0346FB80FB884E
:100F40009B099BB203F1804303F50E331A68FB88BB
:100F500003F01F0322FA03F303F00103002B01D077
:100F6000012300E0002318460C37BD465DF8047BE2
:100F7000704780B400AF054B1B68044A43F0807390
:100F8000136000BFBD465DF8047B704774380240B3
:100F900080B483B000AF0346FB80FB889B099BB203
:100FA00003F1804303F50E331A68FB8803F01F0337
:100FB00022FA03F303F00103002B01D0012300E028
:100FC000002318460C37BD465DF8047B704780B49B
:100FD00083B000AF0346FB80FB889B099BB203F103
:100FE000804303F50E331968FB8803F01F030122C9
:100FF0009A40FB889B099BB203F1804303F50E33B3
:10100000184641EA0203036000BF0C37BD465DF895
:10101000047B704780B483B000AF0346FB80FB883D
:101020009B099BB203F1804303F50E331968FB88DB
:1010300003F01F0301229A40FB889B099BB203F136
:10104000804303F50E33184641EA0203036000BFF4
:101050000C37BD465DF8047B704780B483B000AFA9
:101060000346FB80FB889B099BB203F1804303F599
:101070000E331968FB8803F01F03012202FA03F301
:10108000DA43FB889B099BB203F1804303F50E33DF
:10109000184601EA0203036000BF0C37BD465DF845
:1010A000047B704780B485B000AF7860084B1B6844
:1010B000FB60FB6823F00803FB600549FA687B6866
:1010C00013430B6000BF1437BD465DF8047B7047C7
:1010D0007038024080B584B000AF0346FB80002327
:1010E000FB600023FB720023BB72FB8843F21002FB
:1010F000934200F0AF8043F21002934200F31D814F
:10110000B3F5E85F00F0C080B3F5E85F00F3158148
:101110001C2B43DC002BC0F210811C2B00F20D8134
:1011200001A252F823F000BF211200083B1300086F
:101130003B1300083B1300083B1300083B13000857
:101140003B1300083B1300083B1300083B13000847
:101150003B1300083B1300083B1300083B13000837
:101160003B1300083B130008B51100083B130008AF
:101170003B1300083B1300083B1300083B13000817
:101180003B1300083B130008BB1200083B13000888
:10119000EB1200083B1300081B130008B3F5E05FD7
:1011A00023D0CAE01120FFF7C5FE0346BB72FB68DF
:1011B0000133FB60BB7A002B04D1FB684FF6FF7252
:1011C0009342EFD11120FFF7B5FE0346002B00F04C
:1011D000B6800123FB72B2E041F60140FFF7AAFEA0
:1011E0000346BB72FB680133FB60BB7A002B04D162
:1011F000FB686FF070429342EED141F60140FFF779
:1012000099FE0346002B00F09C800123FB7298E0BE
:101210000120FFF78FFE0346BB72FB680133FB60C2
:10122000BB7A002B03D1FB68B3F5A06FF0D101208E
:10123000FFF780FE0346002B00F085800123FB7240
:1012400081E043F21100FFF775FE0346BB72FB68B5
:101250000133FB60BB7A002B03D1FB68424A934207
:10126000EFD143F21100FFF765FE0346002B6CD06F
:101270000123FB7269E041F60150FFF75BFE034674
:10128000BB72FB680133FB60BB7A002B03D1FB68A8
:10129000354A9342EFD141F60150FFF74BFE03462A
:1012A000002B54D00123FB7251E01920FFF742FEBE
:1012B0000346BB72FB680133FB60BB7A002B03D192
:1012C000FB68294A9342F0D11920FFF733FE034609
:1012D000002B3ED00123FB723BE01B20FFF72AFED0
:1012E0000346BB72FB680133FB60BB7A002B03D162
:1012F000FB681D4A9342F0D11B20FFF71BFE0346FB
:10130000002B28D00123FB7225E01D20FFF712FEE1
:101310000346BB72FB680133FB60BB7A002B03D131
:10132000FB68114A9342F0D11D20FFF703FE0346EC
:10133000002B12D00123FB720FE000BF0EE000BFB4
:101340000CE000BF0AE000BF08E000BF06E000BFFD
:1013500004E000BF02E000BF00E000BFFB7A1846D7
:101360001037BD4680BD00BFFFFF0F0080B483B0C3
:1013700000AF0346FB80FB889B099BB203F18043CF
:1013800003F50E331968FB8803F01F0301229A400E
:10139000FB889B099BB203F1804303F50E3318468B
:1013A00041EA0203036000BF0C37BD465DF8047BD1
:1013B000704780B483B000AF0346FB80FB889B0975
:1013C0009BB203F1804303F50E331968FB8803F0E9
:1013D0001F03012202FA03F3DA43FB889B099BB245
:1013E00003F1804303F50E33184601EA020303605C
:1013F00000BF0C37BD465DF8047B704780B485B0F4
:1014000000AF0346FB80FB8843F2100293426FD08B
:1014100043F2100293426DDCB3F5E85F68D0B3F598
:10142000E85F67DC1C2B41DC002B63DB1C2B61D8E5
:1014300001A252F823F000BFF5140008F5140008CB
:10144000F5140008F5140008F5140008F514000858
:10145000F5140008F5140008F5140008F514000848
:10146000F5140008F5140008F5140008F514000838
:10147000F5140008F5140008B5140008F514000868
:10148000F5140008F5140008F5140008F514000818
:10149000F5140008F5140008F5140008F514000808
:1014A000F5140008F5140008F5140008B3F5E05F22
:1014B0000FD01FE0134B1B68FB60124B1B68114AD7
:1014C00023F4803313600F4AFB6843F480231360D6
:1014D00011E00D4B1B68FB600B4B1B680A4A23F0A5
:1014E00001031360084AFB6843F00403136002E041
:1014F00000BF00E000BF00BF1437BD465DF8047BAD
:10150000704700BF003802407038024080B485B098
:1015100000AF0346FB80FB8843F2100293426FD07A
:1015200043F2100293426DDCB3F5E85F68D0B3F587
:10153000E85F67DC1C2B41DC002B63DB1C2B61D8D4
:1015400001A252F823F000BF051600080516000896
:1015500005160008051600080516000805160008FF
:1015600005160008051600080516000805160008EF
:1015700005160008051600080516000805160008DF
:101580000516000805160008C51500080516000810
:1015900005160008051600080516000805160008BF
:1015A00005160008051600080516000805160008AF
:1015B000051600080516000805160008B3F5E05FDB
:1015C0000FD01FE0134B1B68FB60124B1B68114AC6
:1015D00023F4803313600F4AFB6823F480231360E5
:1015E00011E00D4B1B68FB600B4B1B680A4A23F094
:1015F00001031360084AFB6823F00403136002E050
:1016000000BF00E000BF00BF1437BD465DF8047B9B
:10161000704700BF003802407038024080B400AF0D
:10162000054B1B68044A43F40023136000BFBD460A
:101630005DF8047B704700BF0038024080B400AF03
:10164000054B1B68044A23F40023136000BFBD460A
:101650005DF8047B704700BF0038024080B485B05D
:1016600000AF7860094B1B68FB60FB6823F0F80350
:10167000FB607B68DB00DAB20449FB6813430B6054
:1016800000BF1437BD465DF8047B70470038024048
:1016900080B400AF034B044A1A6000BFBD465DF83A
:1016A000047B7047003902404D3C2B1A80B483B054
:1016B00000AF78607B6803F007037B60044A7B68B7
:1016C000136000BF0C37BD465DF8047B704700BF58
:1016D0003439024080B487B000AFF860B9607A60F6
:1016E0000B4B1B687B617B6903F030437B617A693C
:1016F000FB681A43BB685B031A4305497B681343C5
:101700000B6000BF1C37BD465DF8047B704700BF0F
:101710008038024080B400AF054B1B68044A43F098
:101720000043136000BFBD465DF8047B704700BFF7
:101730008038024080B400AF054B1B68044A23F098
:101740000043136000BFBD465DF8047B704700BFD7
:101750008038024090B498B000AF0346FB7100237C
:10176000FB65594B07F11C040FCB84E80F00574A67
:1017700007F1140392E8030083E80300534A07F1DA
:101780000C0392E8030083E80300514B1B689B089D
:1017900003F003033B653B6D022B0FD03B6D022B27
:1017A00039D83B6D002B03D03B6D012B03D032E0C9
:1017B000484BBB6532E0484BBB652FE0474B1B688D
:1017C00003F03F03FB64454B1B689B09C3F308030D
:1017D000BB64424B1B681B0C03F0030301335B002B
:1017E0007B643E4B1B6803F480033B643B6CB3F5A6
:1017F000800F02D1384B7B6501E0364B7B657A6DFB
:10180000FB6CB2FBF3F3BA6C03FB02F27B6CB2FB32
:10181000F3F3BB6502E02F4BBB6500BF2C4B1B688D
:101820001B0903F00F03FB6307F11C02FB6B13445E
:101830001B78BB63BA6DBB6B22FA03F37B63244B4B
:101840001B689B0A03F00703FB6307F11402FB6BA1
:1018500013441B78BB637A6BBB6B22FA03F33B63C5
:101860001B4B1B685B0B03F00703FB6307F10C02C8
:10187000FB6B13441B78BB637A6BBB6B22FA03F3DD
:10188000FB62FB79032B17D801A252F823F000BFAB
:10189000A1180008A7180008AD180008B318000820
:1018A000BB6DFB6509E07B6BFB6506E03B6BFB6595
:1018B00003E0FB6AFB6500E000BFFB6D1846603784
:1018C000BD4690BC704700BF201C0008301C0008BB
:1018D000083802400024F40040787D0104380240BA
:1018E00080B582B000AF2B4BD3F88830294A43F43F
:1018F0007003C2F88830284B1B68274A43F0010365
:101900001360264B1B68254A43F0800313600023B5
:101910007B6002E07B6801337B607B684CF24F3276
:101920009342F7D91D4B1B681C4A43F09003136088
:1019300000237B6002E07B6801337B607B684CF2B4
:101940004F329342F7D9154B1B68144A23F0030317
:101950001360114B1B68104A23F0847323F4803307
:1019600013600D4B1B680C4A23F4802313600B4B50
:1019700000221A6000BF094B1B68094B094A1A6014
:10198000094B00221A6000F011F800BF0837BD466D
:1019900080BD00BF00ED00E0003802400838024082
:1019A00004380240103000240C38024080B500AFEB
:1019B00000F002F800BF80BD80B483B000AF002308
:1019C0007B6000233B603E4B1B683D4A43F4803301
:1019D00013607B6801337B60394B1B6803F4003371
:1019E0003B603B68002B04D17B684FF6FF7293424B
:1019F000EFD1334B1B6803F40033002B00D1FEE71B
:101A0000304B1B682F4A43F0805313602E4B1B68EA
:101A10002D4A43F4404313602C4B2C4A1B6813603F
:101A20002A4B1B68294A43F400431360274B1B6869
:101A3000264A43F4A0531360254B264A1A60204BD4
:101A40001B681F4A43F08073136000BF1C4B1B6868
:101A500003F00073002BF9D01B4B1B681A4A43F4A8
:101A60008033136000BF1C4B1B6803F48033002BD2
:101A7000F9D0154B1B68144A43F40033136000BFC0
:101A8000154B1B6803F40033002BF9D00F4B1B6878
:101A90000E4A23F0030313600C4B1B680B4A43F000
:101AA0000203136000BF094B1B6803F00803002BFF
:101AB000F9D000BF00BF0C37BD465DF8047B70470E
:101AC00000380240403802400070004008380240B0
:101AD00004380240196440090470004090B48CB08E
:101AE00000AF344B3C460FCB84E80F00324B1B68F1
:101AF0009B0803F00303BB62BB6A022B11D0BB6AD5
:101B0000022B3CD8BB6A002B03D0BB6A012B04D04C
:101B100035E02A4B2A4A1A6035E0284B294A1A60D8
:101B200031E0294B1B6803F03F037B62264B1B68A7
:101B30009B09C3F308033B62234B1B681B0C03F098
:101B4000030301335B00FB611F4B1B6803F480033D
:101B5000BB61BB69B3F5800F02D11A4BFB6201E098
:101B6000174BFB62FA6A7B6AB2FBF3F33A6A03FB38
:101B700002F2FB69B2FBF3F3104A136003E00F4B70
:101B80000F4A1A6000BF0C4B1B681B0903F00F03C0
:101B90007B613A467B6913441B783B61074B1A68AB
:101BA0003B6922FA03F3054A136000BF3037BD4694
:101BB00090BC7047381C0008083802400000002024
:101BC0000024F40040787D01043802400E490F4A99
:101BD0000F4B9B1A03DD043BC858D050FBDC0D496A
:101BE0000D4A0020521A02DD043A8850FCDCFFF74F
:101BF00077FEFEF705FBFEE7FEE7FEE7FEE7FEE702
:101C0000FEE7FEE7FEE70000481C00080000002099
:101C1000040000200402002008020020FEE700006B
:101C2000000000000000000001020304060708098C
:101C3000000000000102030400000000000000009A
:081C4000010203040607080974
:041C480000C2EB0BE0
:0400000508001BCD07
:00000001FF
