:020000040800F2
:10000000D036002045010008850300087D03000864
:1000100081030008770300084D0600080000000077
:10002000000000000000000000000000FD040008C7
:100030007B0300080000000087030008E9050008B2
:100040005F0100085F0100085F0100085F01000810
:100050005F0100085F0100085F0100085F01000800
:100060005F0100085F0100085F0100085F010008F0
:100070005F0100085F0100085F0100085F010008E0
:100080005F0100085F0100085F0100085F010008D0
:100090005F0100085F0100085F0100085F010008C0
:1000A0005F0100085F0100085F0100085F010008B0
:1000B0005F0100085F0100085F0100085F010008A0
:1000C0005F0100085F0100085F0100085F01000890
:1000D0005F0100085F0100085F0100085F01000880
:1000E0005F0100085F0100085F0100085F01000870
:1000F0005F0100085F0100085F0100085F01000860
:100100005F0100085F0100085F0100085F0100084F
:100110005F0100085F0100085F0100085F0100083F
:100120005F0100085F0100085F0100085F0100082F
:10013000DFF80CD000F0F0F800480047C9070008CD
:10014000D03600200648804706480047FEE7FEE715
:10015000FEE7FEE7FEE7FEE7FEE7FEE7FEE7FEE777
:10016000ED0500083101000840EA01039B0703D0B8
:1001700009E008C9121F08C0042AFAD203E011F8E6
:10018000013B00F8013B521EF9D27047D2B201E0A8
:1001900000F8012B491EFBD270470022F6E710B58C
:1001A00013460A4604461946FFF7F0FF204610BDE5
:1001B000F0B480EA0102D40F4200B2EB410F02D248
:1001C0000246084611464A0042D0C30DDDB2C1F3D3
:1001D000C752AD1A202D35DAC1F3160141F40002E1
:1001E00004B15242C5F1200602FA06F12A41104438
:1001F000B3EBD05F23D0C4B1012DA0EBC35009DC19
:10020000F0BC4FF0004202EAC352DBB200F500003E
:1002100000F053B8400000F1807000EBC350A0F133
:10022000807040EAD170490009E0490841EAC07194
:10023000A0EBC35000F50000400800EBC350F0BC39
:1002400000F032B86142012202EB4101001BF6E7E7
:10025000F0BC704781F00041AAE780F00040A7E7BA
:1002600000F0004220F00040C10DC0F3160040F441
:1002700000007F2901DA00207047962903DCC1F1D4
:100280009601C84001E096398840002AF4D04042E7
:1002900070470000002801DBC0F10040002901DBAD
:1002A000C1F10041884270470029A8BF7047401C37
:1002B000490008BF20F00100704710B4B0FA80FC7C
:1002C00000FA0CF050EA010404BF10BC704749B1B9
:1002D000CCF1200421FA04F411FA0CF118BF012129
:1002E00021430843A3EB0C01CB1D4FEA00614FEA09
:1002F000102042BF002010BC704700EBC3501044D8
:100300000029A4BF10BC7047401C490008BF20F062
:10031000010010BC70470000064C074D06E0E06885
:1003200040F0010394E8070098471034AC42F6D33C
:10033000FFF702FF2C0900084C09000830B58C18A3
:1003400010F8012B12F00F0301D110F8013B120934
:1003500006D110F8012B03E010F8015B01F8015BF6
:100360005B1EF9D101E001F8013B521EFBD1A14215
:10037000E6D3002030BD00BFFEE7704700BFFEE7B8
:1003800000BFFEE7704770472DE9F05F05460F4656
:1003900090469946DFF860B000BF9BF8000008B9AE
:1003A00000F056F900BFDFF850A0032D1FD2EFF385
:1003B00011810846202181F3118800BF00BF05EBA1
:1003C00045020AF1600101EBC2043DB12760C4F8A7
:1003D0000480C4F8089000212161E1600A996161FC
:1003E000C1B281F3118800BF00BF002601E04FF0C9
:1003F000FF363046BDE8F09F182200202DE9F05F5F
:1004000005460F4690469946DFF860B000BF9BF85E
:10041000000008B900F01CF900BFDFF850A0032D60
:100420001FD2EFF311810846202181F3118800BF0C
:1004300000BF05EB45020AF1180101EBC2043DB112
:100440002760C4F80480C4F8089000212161E160AD
:100450000A996161C1B281F3118800BF00BF002613
:1004600001E04FF0FF363046BDE8F09F1822002033
:1004700010B500F0EDF810BD2DE9F04707468846AD
:100480001646C24607EB47011B4800EBC109D9F8E5
:10049000140020B1012811D0022826D11EE04846C0
:1004A00000F00EF90546B54201D2002405E03446BD
:1004B00032465146484600F04CF918E0484600F0F4
:1004C000FFF80546B54201D2284600E03046044612
:1004D00022465146484600F03CF908E03246514673
:1004E000484600F0FBF8044601E0002400BF00BFCE
:1004F0002046BDE8F087000030220020704710B58C
:1005000000F002F810BD00000CB500200190009032
:100510003348006840F480303149086000BF3048FB
:10052000006800F4003000900198401C0190009891
:1005300018B90198B0F5A06FF1D12948006800F40E
:10054000003010B10120009001E0002000900098E0
:10055000012843D12348006840F010002149086079
:100560000846006820F0030008600846006840F074
:10057000020008601A484068194948600846406807
:1005800048600846406840F480604860084640681B
:1005900020F47C1048600846406840F4E810486049
:1005A0000846006840F08070086000BF0C48006892
:1005B00000F000700028F9D00948406820F00300DE
:1005C000074948600846406840F00200486000BFA4
:1005D0000348406800F00C000828F9D10CBD000069
:1005E00000100240002002407047000010B5134880
:1005F000006840F001001149086008464068104951
:1006000008400E494860084600680E4908400B49FA
:1006100008600846006820F48020086008464068AA
:1006200020F4FE0048604FF41F008860FFF767FF6A
:100630004FF000600449086010BD00000010024047
:100640000000FFF8FFFFF6FE08ED00E000BFFEE748
:1006500070B5144CA8212046FFF79FFD03202061B0
:10066000606111A0A0611349E1614FF480512162E2
:100670000021A1626162E1620BA020660E49616601
:100680001021A16600212167E1666167002505E070
:10069000C5F10F000949085C60556D1C102DF7D39A
:1006A00070BD0000182200205465726D696E616C87
:1006B00000000000C0220020C032002018090008FD
:1006C00010B501460A69CB689A4204D88C68641E4A
:1006D000E41AA01801E0D41A601E10BD2DE9F05FE5
:1006E0000446894617464FF0000AE56800BFD4F873
:1006F0001080A84503D9A8EB0500461E04E0A5EB31
:100700000800401CA1680E1AA068401BB04201D925
:10071000304601E0A068401B0646BE4201D230468A
:1007200000E038460646606800EB050B3246494655
:100730005846FFF719FDB244B144BF1B3544A068C9
:10074000A84200D10025E560002FD0D15046BDE879
:10075000F09F2DE9F047044689461546E668A068F3
:10076000871BAF420AD9606800EB060A2A46494651
:100770005046FFF7F9FC7019E06014E0B846606875
:1007800000EB060A424649465046FFF7EDFCA5EB52
:100790000708D4F804A009EB070142465046FFF7CA
:1007A000E3FCC4F80C80BDE8F08702E008C8121F23
:1007B00008C1002AFAD170477047002001E001C14A
:1007C000121F002AFBD1704708B5FFF751FE002029
:1007D0004FF48053104A11A100900220FFF70EFE43
:1007E0000220C3020C4A12A100900120FFF706FE6E
:1007F000022043020F4A10A100900120FFF7C4FD20
:10080000002400BF06E02046641CC82802DD002446
:1008100000F016F8F7E70000180200204A53636F53
:1008200070655F693269326932693269320000008D
:10083000636D64001812002072656164000000009E
:1008400010B58AB02C492D480068FFF723FD03D26C
:1008500000202A49086006E0294928480068FFF777
:10086000A7FC264908602548046826492046FFF76A
:100870009FFC049020492046FFF79AFC05902249EE
:100880002046FFF795FC069020492046FFF790FC94
:1008900007901F492046FFF78BFC08901D490498DC
:1008A000086005984860069888600798C8600498B2
:1008B000FFF7D6FC00B2ADF804000598FFF7D0FCB6
:1008C00000B2ADF806000698FFF7CAFC00B2ADF81A
:1008D00008000798FFF7C4FC00B2ADF80A000898BA
:1008E000FFF7BEFC00B2ADF80C000A2201A90220FD
:1008F000FFF7C2FD0AB010BD00007A4434000020AA
:100900000000204100007A450000FA440080BB4509
:1009100000401C460000002000000000000054546D
:100920005220524547474553000000004C0900083B
:1009300000000020180200003C030008B009000875
:1009400018020020B8340000BA0700083143803F85
:10095000324033404033804033A04033C04043E016
:1009600040324133104133204133304103D34041C1
:1009700043803F324033404033804033A04033C057
:100980004043E04032413310410BD12041B81E3585
:100990004114AE43412E0100020003000400050093
:1009A0000600071B080009000A000B000C000000ED
:0400000508000131BD
:00000001FF
