:020000040800F2
:10000000680800204D020008550200085702000849
:10001000590200085B0200085D02000800000000B1
:100020000000000000000000000000005F02000867
:100030006102000800000000630200086502000879
:1000400067020008670200086702000867020008EC
:1000500067020008670200086702000867020008DC
:1000600067020008670200086702000867020008CC
:1000700067020008670200086702000867020008BC
:1000800067020008670200086702000867020008AC
:10009000670200086702000867020008670200089C
:1000A000670200086702000867020008670200088C
:1000B000670200086702000867020008670200087C
:1000C000670200086702000867020008670200086C
:1000D000670200086702000867020008670200085C
:1000E000670200086702000867020008670200084C
:1000F000670200086702000867020008670200083C
:10010000670200086702000867020008670200082B
:10011000670200086702000867020008670200081B
:10012000670200086702000867020008670200080B
:1001300067020008670200086702000867020008FB
:1001400067020008670200086702000867020008EB
:1001500067020008670200086702000867020008DB
:1001600067020008670200086702000867020008CB
:10017000670200086702000867020008000000002C
:1001800067020008670200086702000867020008AB
:10019000670200086702000867020008000000000C
:1001A00067020008670200086702000800F002F812
:1001B00000F03CF80AA090E8000C82448344AAF1C5
:1001C0000107DA4501D100F031F8AFF2090EBAE8C3
:1001D0000F0013F0010F18BFFB1A43F0010318477B
:1001E000B0040000D0040000103A24BF78C878C1E1
:1001F000FAD8520724BF30C830C144BF04680C602D
:10020000704700000023002400250026103A28BF74
:1002100078C1FBD8520728BF30C148BF0B60704778
:100220001FB500F02FFA1FBD10B510BD00F031F85A
:100230001146FFF7F5FF00F0CFF900F04FF803B4D7
:10024000FFF7F2FF03BC00F057F8000009488047B1
:1002500009480047FEE7FEE7FEE7FEE7FEE7FEE7A8
:10026000FEE7FEE7FEE7FEE704480549054A064BC0
:100270007047000009030008AD0100086800002075
:100280006808002068040020680400207047704758
:100290007047754600F02CF8AE4605006946534697
:1002A00020F00700854618B020B5FFF7DDFFBDE858
:1002B00020404FF000064FF000074FF000084FF0CD
:1002C000000B21F00701AC46ACE8C009ACE8C0095E
:1002D000ACE8C009ACE8C0098D46704710B50446CB
:1002E000AFF300802046BDE81040FFF7A8BF000034
:1002F000004870470800002001491820ABBEFEE707
:10030000260002007047000008B52D48006840F440
:1003100070002B4908602B48006840F00100294913
:10032000086028480830006840F0800025490831FE
:1003300008600020009002E00098401C00904CF201
:10034000503100988842F7D31E480830006840F0CA
:1003500090001C49083108600020009002E00098DD
:10036000401C00904CF2503100988842F7D3154859
:100370000830006820F00300124908310860114875
:100380000068114908400F4908600846006820F4D9
:100390008020086000200B490831086000BF094830
:1003A0000830006800200028F9D108480549091DD7
:1003B0000860002003490C31086000F01DF808BDFA
:1003C00088ED00E000380240FFFFF6FE1030002408
:1003D00010B5002807DA0A07140E054A00F00F03CB
:1003E0001B1FD45403E00A07130E024A135410BD16
:1003F00018ED00E000E400E010B500F001F810BDD9
:10040000002000213A4A126842F48032384B1A60C8
:1004100000BF401C364A126802F4003119B94FF689
:10042000FF729042F5D1324A126802F400320AB9E2
:1004300000BFFEE72E4A4032126842F080522C4B39
:1004400040331A602B4A126842F44042294B1A602A
:10045000274A08321268264B08331A601A46126877
:1004600042F400421A601A46126842F4A0521A601E
:10047000214A1B1F1A601A1F126842F080721B1F4C
:100480001A6000BF1A4A126802F00072002AF9D0FE
:10049000184A126842F48032164B1A6000BF154A9F
:1004A000526802F48032002AF9D0124A126842F4EB
:1004B0000032104B1A6000BF0E4A526802F400323C
:1004C000002AF9D00A4A0832126822F00302084BC7
:1004D00008331A601A46126842F002021A6000BF1E
:1004E000034A0832126802F00802002AF8D0704766
:1004F0000038024000700040196440090349086058
:1005000000BF024909680029FBD1704700000020A4
:100510000AB1816100E081627047F0B504460D4682
:1005200016462168E268002019E0012787401F4035
:100530009FB14FEA400C032707FA0CF7B943470075
:1005400005FA07F739434FEA400C032707FA0CF77F
:10055000BA43470006FA07F73A43471CB8B21028D7
:10056000E3D32160E260F0BDF0B50C461546012CE6
:1005700003D146681E43466002E046689E434660DB
:10058000826800210DE001268E401E403EB14F00E2
:100590000326BE40B2434E0005FA06F632434E1C17
:1005A000B1B21029EFD38260F0BD000010B540F663
:1005B000024000F02DF84FF40043002201210548CD
:1005C000FFF7ABFF4FF40043022200210148FFF781
:1005D000CBFF10BD0008024000F02CF8FFF7E6FF4B
:1005E00012E04FF47A70FFF789FF0122D103074828
:1005F000FFF78EFF4FF47A70FFF780FF00224FF471
:1006000000410248FFF784FFEBE7000000080240CA
:10061000074A02EB9011D1F8001800F01F030122E5
:100620009A401143024B03EB9012C2F80018704736
:100630000030024010B5124800684FF47A71B0FBE8
:10064000F1F4601EB0F1807F01D301200FE0601E45
:100650004FF0E02148610F214FF0FF30FFF7B8FE67
:1006600000204FF0E021886107200861002008B1D8
:1006700000BFFEE70021481EFFF7AAFE10BD0000E4
:10068000040000204FF04070E1EE100A70470000B7
:10069000B00600080000002008000000E801000883
:1006A000B8060008080000206008000004020008E6
:0806B0000000000000C2EB0B8A
:04000005080001AD41
:00000001FF
