:020000040800F2
:1000000030040020A1010008D1020008C902000844
:10001000CD020008E9010008870700080000000081
:10002000000000000000000000000000790400084B
:10003000ED010008000000004D03000869050008FC
:10004000BB010008BB010008BB010008BB010008A0
:10005000BB010008BB010008BB010008BB01000890
:10006000BB010008BB010008BB010008BB01000880
:10007000BB010008BB010008BB010008BB01000870
:10008000BB010008BB010008BB010008BB01000860
:10009000BB010008BB010008BB010008BB01000850
:1000A000BB010008BB010008BB010008BB01000840
:1000B000BB010008BB010008BB010008BB01000830
:1000C000BB010008BB010008BB010008BB01000820
:1000D000BB010008D5050008BB010008BB010008F2
:1000E000BB010008BB010008BB010008BB01000800
:1000F000BB010008BB010008BB010008BB010008F0
:10010000BB010008BB010008BB010008BB010008DF
:10011000BB010008BB010008BB010008BB010008CF
:10012000BB010008BB010008BB010008BB010008BF
:10013000BB010008BB010008BB010008BB010008AF
:10014000BB010008BB010008BB010008BB0100089F
:10015000BB010008BB010008BB010008BB0100088F
:10016000BB010008BB010008BB010008BB0100087F
:10017000BB010008BB010008BB010008BB0100086F
:10018000BB010008BB010008DFF810D000F01AF82E
:1001900000480047E9080008AFF300803004002061
:1001A0000648804706480047FEE7FEE7FEE7FEE711
:1001B000FEE7FEE7FEE7FEE7FEE7FEE76D05000867
:1001C00089010008064C074D06E0E06840F0010395
:1001D00094E8070098471034AC42F6D3FFF7D8FFF5
:1001E000D0090008F009000800BFFEE77047F0B52D
:1001F0000A4600210023002400BF3DE0012505FA46
:1002000001F3156805EA03049C4234D105684F00E8
:100210000326BE40B543056015794E00B54006681B
:10022000354305601579012D02D01579022D16D1BF
:1002300085684F000326BE40B543856055794E0062
:10024000B540866835438560456801268E40B543D4
:100250004560456896798E40B6B235434560C568BD
:100260004F000326BE40B543C560D5794E00B5406A
:10027000C6683543C560491C1029BFD3F0BDF0B531
:10028000002300244D07ED0E02FA05F3CE1000F115
:10029000200555F826504E07F70E0F26BE40B543F1
:1002A000CF1000F1200646F82750CE1000F12005AF
:1002B00055F8265045EA0304CE1000F1200545F814
:1002C0002640F0BD0183704700BFFEE700BFFEE798
:1002D0007047000070B5002100230F22C4781CB3C2
:1002E000174C246804F4E064C4F5E064C4F3072107
:1002F000C1F10404E3B20A4144789C40E1B284783D
:10030000144021430C07210E0E4C057861550478EA
:1003100004F01F050124AC4005786D11AD0005F116
:10032000E025C5F8004109E0047804F01F05012428
:10033000AC40054D0678761145F8264070BD0000AA
:100340000CED00E000E400E080E100E07047000018
:1003500029B1064A12680243044B1A6004E0034ABA
:1003600012688243014B1A60704700003038024027
:1003700029B1064A12680243044B1A6004E0034A9A
:1003800012688243014B1A607047000044380240F3
:10039000F0B5002100220024022500260223324F5E
:1003A0003F6807F00C0121B1042905D0082937D195
:1003B00005E02E4F076036E02D4F076033E02A4FEF
:1003C0003F1F3F68C7F38056274F3F1F3F6807F026
:1003D0003F036EB1264FB7FBF3F7DFF88CC0ACF1EB
:1003E000040CDCF800C0CCF3881C07FB0CF40CE018
:1003F0001E4FB7FBF3F7DFF870C0ACF1040CDCF86C
:1004000000C0CCF3881C07FB0CF4174F3F1F3F685C
:10041000C7F301477F1C7D00B4FBF5F7076002E0DE
:10042000124F076000BF00BF0F4F3F6807F0F00199
:100430000909104F7A5C0768D74047600A4F3F6848
:1004400007F4E051890A0B4F7A5C4768D740876010
:10045000054F3F6807F46041490B064F7A5C4768D7
:10046000D740C760F0BD0000083802400024F40007
:1004700000127A0014000020704700000CB5002024
:10048000019000903448006840F4803032490860A0
:1004900000BF3148006800F4003000900198401C13
:1004A0000190009818B90198B0F5A04FF1D12A48F1
:1004B000006800F4003010B10120009001E000203D
:1004C00000900098012846D123484030006840F051
:1004D00080502149403108602048006840F4404085
:1004E0001E4908601C48083000681B490831086034
:1004F0000846006840F4004008600846006840F480
:10050000A05008601648091F0860081F006840F0E6
:100510008070091F086000BF0F48006800F000707D
:100520000028F9D040F205700E4908600A480830EA
:10053000006820F003000849083108600846006898
:1005400040F00200086000BF03480830006800F077
:100550000C000828F8D10CBD0038024000700040A3
:1005600008544007003C02407047000010B5154891
:10057000006840F47000134908601348006840F0B8
:1005800001001149086000200F49083108600E4839
:1005900000680E4908400C4908600D48091D0860B4
:1005A000081F006820F48020091F08600020064909
:1005B0000C310860FFF762FF4FF00060014980399D
:1005C000086010BD88ED00E000380240FFFFF6FE35
:1005D0001030002410B540F22551044800F014F802
:1005E00018B1024800F0CAF8C4B210BD00100140B2
:1005F00021B1828942F40052828104E082894DF661
:10060000FF731A408281704770B5024600240023B0
:100610000025002040F66A16B14200D100BFC1F3A8
:10062000421501F01F03012606FA03F3012D02D142
:100630009689334006E0022D02D1168A334001E04C
:10064000968A33400C12012606FA04F416883440C8
:1006500013B10CB1012000E0002070BDF0B50346DD
:10066000002400260025002040F66A17B94200D178
:1006700000BF1846C1F3421401F01F06012707FA14
:1006800006F5012C01D10C3004E0022C01D1103010
:1006900000E014301AB107682F43076002E00768D2
:1006A000AF430760F0BD00002DE9FF4705460E4649
:1006B0000024A14600BFA046B08900B100BF2C8A2B
:1006C00024F44054F08804432C82AC8941F20C603D
:1006D0008443B08831890843718908430443AC815D
:1006E000AC8A24F44074B0890443AC826846FFF7B6
:1006F0004FFE2048854202D01F48854202D1DDF8D6
:100700000C9001E0DDF80890A88900F4004040B1A9
:1007100009EBC90000EB091031684900B0FBF1F7A3
:1007200007E009EBC90000EB091031688900B0FB54
:10073000F1F76420B7FBF0F004012009642101FB0C
:100740001078A88900F4004040B1322000EBC800C6
:10075000B0FBF1F000F00700044308E0322000EBAA
:1007600008106421B0FBF1F000F00F0004432C816D
:10077000BDE8FF8700100140001401400146888851
:10078000C0F30800704700BFFEE702E008C8121F70
:1007900008C1002AFAD170477047002001E001C16A
:1007A000121F002AFBD1704700B5B0EE401A9FED32
:1007B000050A21EE000ABCEEC00A10EE100A00F095
:1007C00003F800BD0024744930B500230021002443
:1007D000184A1268904209D9164A1268B0FBF2F31F
:1007E000144A1268B0FBF2F502FB1500002209E082
:1007F000114D696800BF104D6D686D1AB5F1704FED
:10080000F9D3521C9A42F3D30B4A516800EE100AF6
:10081000B8EE400A094AD2ED000A20EE200ABCEEEA
:10082000C00A10EE104A00BF034A5268521AA24290
:10083000FAD330BD28000020001000E02400002082
:100840001248006840F0807010490860002010498C
:1008500048600846006840F0010008600D480068E4
:100860000D49B0FBF1F000EE100AB8EE400A0B485B
:1008700080ED000A90ED000ADFED090A80EE801A93
:10088000BCEEC10A074880ED000A7047FCED00E0AD
:10089000001000E00000002040420F002400002073
:1008A0000000704F280000201CB501212020FFF718
:1008B0004FFD4FF4C060009001208DF8040000202F
:1008C0008DF8060003208DF8050001208DF8070043
:1008D00069460448FFF78BFC4FF4C0610148FFF7FD
:1008E000F1FC1CBD00140240FFF7AAFF4FF4E130F9
:1008F00000F018F8FFF7D8FF0EE001200749086064
:10090000B6EE000AFFF750FF00200549C1F8A40227
:10091000B6EE000AFFF748FFEFE70000A48242426C
:100920000080424210B588B0044601210846FFF716
:100930000FFD01211020FFF71BFD0722092122488E
:10094000FFF79DFC07220A211F48FFF798FC4FF490
:10095000C060069002208DF81C008DF81D0000205C
:100960008DF81E0001208DF81F0006A91648FFF71C
:100970003EFC02940020ADF80C00ADF80E00ADF87E
:100980001000ADF814000C20ADF8120002A90F48B9
:10099000FFF78AFE01210D48FFF72AFE012240F2EF
:1009A00025510A48FFF75AFE25208DF80400032040
:1009B0008DF805008DF8060001208DF8070001A8CC
:1009C000FFF788FC08B010BD000002400010014095
:1009D000F0090008000000202C0000008A07000831
:1009E0001C0A00082C000020040400009A070008DC
:1009F000007A030A00000000000000000102030466
:100A000006070809000000000102030401020304B4
:0C0A1000060708090000000000000000BC
:040000050800018965
:00000001FF
