:020000040800F2
:10000000900A0020A1010008670800085F080008A6
:10001000630800087F0700085F0D0008000000006B
:100020000000000000000000000000000D0A0008B1
:100030008307000800000000E1080008FD0A00082E
:10004000BB010008BB010008BB010008BB010008A0
:10005000BB010008BB010008BB010008BB01000890
:10006000BB010008BB010008BB010008BB01000880
:10007000BB010008BB010008BB010008BB01000870
:10008000BB010008BB010008BB010008BB01000860
:10009000BB010008BB010008BB010008BB01000850
:1000A000BB010008BB010008BB010008BB01000840
:1000B000BB010008BB010008BB010008BB01000830
:1000C000BB010008BB010008BB010008BB01000820
:1000D000BB010008690B0008850B0008BB01000884
:1000E000BB010008BB010008BB010008BB01000800
:1000F000BB010008BB010008BB010008BB010008F0
:10010000BB010008BB010008BB010008BB010008DF
:10011000BB010008BB010008BB010008BB010008CF
:10012000BB010008BB010008BB010008BB010008BF
:10013000BB010008BB010008BB010008BB010008AF
:10014000BB010008BB010008BB010008BB0100089F
:10015000BB010008BB010008BB010008BB0100088F
:10016000BB010008BB010008BB010008BB0100087F
:10017000BB010008BB010008BB010008BB0100086F
:10018000BB010008BB010008DFF810D000F01AFA2C
:100190000048004775170008AFF30080900A002060
:1001A0000648804706480047FEE7FEE7FEE7FEE711
:1001B000FEE7FEE7FEE7FEE7FEE7FEE7010B0008CD
:1001C0008901000840EA01039B0703D009E008C940
:1001D000121F08C0042AFAD203E011F8013B00F80C
:1001E000013B521EF9D2704700F0004230F000404F
:1001F0000AD0C10D01F56071C0F3160042EA015149
:10020000C20840071143704700200146704701F0C3
:10021000004330B421F0004150EA010206D00A0D3B
:10022000A2F56072C1F31301002A02DC30BC002089
:100230007047440F44EAC104C100E01830BC00EB31
:10024000C250AFF300800029A8BF7047401C49008E
:1002500008BF20F00100704710B4B0FA80FC00FA2B
:100260000CF050EA010404BF10BC704749B1CCF156
:10027000200421FA04F411FA0CF118BF01212143E2
:100280000843A3EB0C01CB1D4FEA00614FEA10209D
:1002900042BF002010BC704700EBC350104400293F
:1002A000A4BF10BC7047401C490008BF20F00100EB
:1002B00010BC70472DE9FE4F804681EA0300C00F55
:1002C0000C46009021F0004123F00045B8EB0200FD
:1002D000A94105D24046214690461C460B4602469F
:1002E00023F00040104347D0270DC7F30A00C3F3A3
:1002F0000A510290401A019040286BDAC3F31300B0
:1003000040F4801B0098924620B10023D2EB030AF0
:1003100063EB0B0B01985946C0F14002504600F0C8
:1003200063F906460D4650465946019A00F07BF99E
:1003300010EB08006141002487EA115284EAE77358
:100340001A4340D0009A62B3019A012A4FEA075239
:1003500015DC001B61EB02014FF0004202EA07527C
:10036000CDE90042001C41F5801132462B4600F0D9
:100370007BF903B0BDE8F08F40462146F9E7001B4A
:1003800061EB0201001C41F5801300185B4120184D
:10039000A2F5001747EB030140EAD570B6196D418D
:1003A00011E06D084FEA360645EAC0754FEA07527C
:1003B000001B61EB0201001C41F5801149084FEA66
:1003C00030000019514132462B4603B0BDE8F04FD2
:1003D00000F03BB90098012240000023D0EB02025C
:1003E00063EBE073009821464FEAE074B8EB00003D
:1003F00061EB0401E9E783F000435BE781F0004132
:1004000058E72DE9FE4F81EA030404F0004421F08F
:10041000004100944FF0000B23F0004350EA010428
:100420005ED052EA03045BD0C3F30A54C1F30A5509
:100430002C44A4F2F3340194A0FB0254C1F3130141
:1004400041F48011C3F3130343F4801301FB02440E
:1004500000FB034E840A970A44EA815447EA835713
:10046000A4FB076802958D0A05FB07854FEA932CCC
:1004700004FB0C542705029D4FEA065847EA16373D
:10048000B5EB08056EEB070C870E920E47EA811755
:1004900042EA8312A7FB0201B6EB0B0164EB0004F6
:1004A0002B0D43EA0C335E1844EB1C50DA465146E0
:1004B000E7FB0201C5F313044FEA0B3343EA14537D
:1004C0004FEA0432019C43EA0603A4F10C040294AF
:1004D000009CCDE900B400F0C7F803B0BDE8F08F90
:1004E00000200146F9E72DE9F04D81EA030404F00C
:1004F000004B21F0004514464FF0000A23F0004164
:1005000050EA050220D054EA01021DD0C5F30A5773
:100510000246C5F31303C1F31300C1F30A5640F4B6
:10052000801543F48013A7EB0608101BD64608F28B
:10053000FD3873EB050002D308F1010801E09218C1
:100540005B41B8F1000F03DA00200146BDE8F08DF1
:1005500000204FF48011064684460EE0171B73EB13
:10056000050705D3121B63EB050306434CEA010C98
:1005700049084FEA300092185B4150EA0107EDD17B
:1005800052EA030012D082EA040083EA050108431C
:1005900005D0101BAB4106D20122002306E0002249
:1005A0004FF0004302E06FF0010253101AEB060017
:1005B0004CEB085110EB0A0041EB0B01BDE8F04D8C
:1005C00000F043B8064C074D06E0E06840F0010338
:1005D00094E8070098471034AC42F6D3FFF7D8FDF3
:1005E000001C0008201C0008202A04DB203A00FA26
:1005F00002F1002070479140C2F1200320FA03F37A
:10060000194390407047202A04DB203A21FA02F077
:100610000021704721FA02F3D040C2F1200291403C
:10062000084319467047202A06DBCB17203A41FAC7
:1006300002F043EAE07306E041FA02F3D040C2F16F
:100640002002914008431946704710B5141E73F1FB
:10065000000408DA401C41F1000192185B411A4382
:1006600001D120F0010010BD2DE9F04D92469B46CE
:1006700011B1B1FA81F202E0B0FA80F22032904674
:10068000FFF7B2FF04460F4640EA0A0041EA0B01B9
:1006900053465A46084313D0114653EA010019D075
:1006A000C8F140025046FFF7AEFF05460E465046E1
:1006B00059464246FFF798FF084305D0012004E061
:1006C00020463946BDE8F08D0020054346EAE07635
:1006D0002C4337430A986305E40AA0EB0800002284
:1006E000FD0A44EA47540A3002D500200146E9E7F2
:1006F000010510196941DDE9084500196941BDE8A6
:10070000F04DA2E70EB5C10F80EAE0700844CA07B9
:10071000002140F233438DE80E000A460B46FFF7F6
:10072000A3FF03B000BD0EB540F23341029100219A
:10073000CDE900110A460B46FFF796FF03B000BD56
:1007400070B5C1F30A5201F000450024C1F3130152
:1007500040F2FF3341F480119A4201DA002070BD6B
:1007600040F233439A42A2F2334203DC5242FFF793
:100770004AFF00E090402C43F1D0404270BD00BFE2
:10078000FEE77047F0B50A4600210023002400BFB1
:100790003DE0012505FA01F3156805EA03049C42D2
:1007A00034D105684F000326BE40B5430560157976
:1007B0004E00B5400668354305601579012D02D01D
:1007C0001579022D16D185684F000326BE40B5432A
:1007D000856055794E00B54086683543856045682B
:1007E00001268E40B5434560456896798E40B6B285
:1007F00035434560C5684F000326BE40B543C5601C
:10080000D5794E00B540C6683543C560491C1029EE
:10081000BFD3F0BDF0B5002300244D07ED0E02FA62
:1008200005F3CE1000F1200555F826504E07F70EBF
:100830000F26BE40B543CF1000F1200646F82750E2
:10084000CE1000F1200555F8265045EA0304CE10DD
:1008500000F1200545F82640F0BD0183704700BF38
:10086000FEE700BFFEE7704770B5002100230F22AE
:10087000C4781CB3174C246804F4E064C4F5E06445
:10088000C4F30721C1F10404E3B20A4144789C4057
:10089000E1B28478144021430C07210E0E4C0578F8
:1008A0006155047804F01F050124AC4005786D11F2
:1008B000AD0005F1E025C5F8004109E0047804F039
:1008C0001F050124AC40054D0678761145F82640F9
:1008D00070BD00000CED00E000E400E080E100E00D
:1008E0007047000029B1064A12680243044B1A609F
:1008F00004E0034A12688243014B1A60704700000B
:100900003038024029B1064A12680243044B1A608B
:1009100004E0034A12688243014B1A6070470000EA
:1009200040380240F0B500210022002402250026B4
:100930000223324F3F6807F00C0121B1042905D092
:10094000082937D105E02E4F076036E02D4F0760AC
:1009500033E02A4F3F1F3F68C7F38056274F3F1FA2
:100960003F6807F03F036EB1264FB7FBF3F7DFF8A0
:100970008CC0ACF1040CDCF800C0CCF3881C07FB85
:100980000CF40CE01E4FB7FBF3F7DFF870C0ACF1CE
:10099000040CDCF800C0CCF3881C07FB0CF4174FE8
:1009A0003F1F3F68C7F301477F1C7D00B4FBF5F78D
:1009B000076002E0124F076000BF00BF0F4F3F68A3
:1009C00007F0F0010909104F7A5C0768D7404760CB
:1009D0000A4F3F6807F4E051890A0B4F7A5C476879
:1009E000D7408760054F3F6807F46041490B064FC9
:1009F0007A5C4768D740C760F0BD00000838024005
:100A00000024F40000127A002C000020704700003F
:100A10000CB50020019000903448006840F480300C
:100A20003249086000BF3148006800F4003000908F
:100A30000198401C0190009818B90198B0F5A04F9A
:100A4000F1D12A48006800F4003010B10120009074
:100A500001E0002000900098012846D12348403052
:100A6000006840F08050214940310860204800680B
:100A700040F440401E4908601C48083000681B498B
:100A8000083108600846006840F4004008600846E5
:100A9000006840F4A05008601648091F0860081F4D
:100AA000006840F08070091F086000BF0F480068B0
:100AB00000F000700028F9D040F205700E4908607F
:100AC0000A480830006820F003000849083108602F
:100AD0000846006840F00200086000BF0348083084
:100AE000006800F00C000828F8D10CBD0038024066
:100AF0000070004008544007003C0240704700006E
:100B000010B51548006840F4700013490860134898
:100B1000006840F001001149086000200F490831C9
:100B200008600E4800680E4908400C4908600D48EE
:100B3000091D0860081F006820F48020091F086054
:100B4000002006490C310860FFF762FF4FF000609B
:100B500001498039086010BD88ED00E0003802408E
:100B6000FFFFF6FE1030002410B540F22551044876
:100B700000F033F818B1024800F0E8F8C4B210BD34
:100B80000010014010B540F22551064800F025F84C
:100B900030B1044800F0DAF8C4B2204600F07CFF1F
:100BA00010BD00000044004021B1828942F400528F
:100BB000828104E082894DF6FF731A40828170477A
:100BC00002460020B1F5007F00D100BF13880B4022
:100BD0000BB1012000E00020704770B502460024F0
:100BE00000230025002040F66A16B14200D100BF64
:100BF000C1F3421501F01F03012606FA03F3012D8C
:100C000002D19689334006E0022D02D1168A334084
:100C100001E0968A33400C12012606FA04F4168885
:100C2000344013B10CB1012000E0002070BDF0B5DC
:100C30000346002400260025002040F66A17B9422A
:100C400000D100BF1846C1F3421401F01F0601276E
:100C500007FA06F5012C01D10C3004E0022C01D179
:100C6000103000E014301AB107682F43076002E02B
:100C70000768AF430760F0BD2DE9FF4705460E4604
:100C80000024A14600BFA046B08900B100BF2C8A55
:100C900024F44054F08804432C82AC8941F20C6067
:100CA0008443B08831890843718908430443AC8187
:100CB000AC8A24F44074B0890443AC826846FFF7E0
:100CC00031FE2048854202D01F48854202D1DDF81E
:100CD0000C9001E0DDF80890A88900F4004040B1D4
:100CE00009EBC90000EB091031684900B0FBF1F7CE
:100CF00007E009EBC90000EB091031688900B0FB7F
:100D0000F1F76420B7FBF0F004012009642101FB36
:100D10001078A88900F4004040B1322000EBC800F0
:100D2000B0FBF1F000F00700044308E0322000EBD4
:100D300008106421B0FBF1F000F00F0004432C8197
:100D4000BDE8FF870010014000140140014688887B
:100D5000C0F308007047C1F308028280704700BFEB
:100D6000FEE703B401984100009850EAC12018BF83
:100D700004204A0D18BF40F0010040F2FF72B2EBB0
:100D8000515F08BF40F00200012808BF052002B0F3
:100D9000704700000000000010B52F499FED2C1B8C
:100DA0002DED020B84B0059820F000408842DCBF96
:100DB00000209DED040B32DD2849884209D10498BA
:100DC00040B94FF0010000F06FFC00F03DFC06B0B0
:100DD00010BD05DB9DED040B00F02AFC06B010BD34
:100DE00068469DED040B00F03BF810F0030011D0B5
:100DF000012818D09DED021B9DED000B02281AD092
:100E000000F04AFA51EC100B81F0004106B041ECC1
:100E1000100B10BD9DED021B9DED000B012000F09D
:100E20006FFB06B010BD9DED021B9DED000B00F0A9
:100E300033FA06B010BD012000F062FB51EC100B3C
:100E400081F0004106B041EC100B10BD0000000025
:100E50000000000000000000FB21E93F0000F07FDF
:100E60002DE9F14F04462DED020B2DED088B8AB0D4
:100E70009FEDE70B80ED020B139EE74826F000453F
:100E800085420ADC9DED120B002084ED000B0AB0B8
:100E9000BDEC088B03B0BDE8F08FE0489FEDE0AB00
:100EA0009FEDE1BBA84247DDE14F9FEDE39B9FED46
:100EB000E48B9DED120B53EC1A2B51EC100B002E12
:100EC0001CDDFFF798FA41EC100BBD4208D053EC43
:100ED0001B2B51EC100BFFF78EFAC4E900010BE05D
:100EE00053EC192B51EC100BFFF785FA53EC182B30
:100EF000FFF781FAC4E900010120C8E7FFF7DAF93A
:100F000041EC100BBD4208D053EC1B2B51EC100BE5
:100F1000FFF7D0F9C4E900010BE053EC192B51ECB9
:100F2000100BFFF7C7F953EC182BFFF7C3F9C4E90F
:100F300000014FF0FF30AAE7C348A84279DB9DEDDE
:100F4000120B51EC100B00F0E9FB41EC180B9FED7C
:100F5000C00B53EC102BFFF754FA9FEDBF1B53EC63
:100F6000112BFFF7A7F9FFF7EBFB0746FFF7CAFBCB
:100F700041EC190B53EC1A2BFFF743FA53EC182BE7
:100F8000FFF73CFA41EC180B53EC1B2B51EC190BFF
:100F9000FFF737FADFF8C8A241EC100B4FEA1558FB
:100FA0000125FA4453EC102B51EC180BFFF723FAF0
:100FB000032DC4E900013DD0C1F30A5005EB4511F2
:100FC000A8EB00001139814234DA0AEB051BB0EEC0
:100FD00048AA9BED000BF0EE68AA53EC102B51ECE5
:100FE000190BFFF70EFA41EC1B0B51EC1A0B53ECEB
:100FF0001B2BFFF700FA41EC180B51EC1A0B53ECCA
:10100000182BFFF7F8F953EC1B2BFFF7F4F99BEDC6
:10101000020B41EC1A0B53EC102B51EC190BFFF7A0
:10102000F0F953EC1A2BFFF7E6F941EC100B6D1CAD
:10103000B8E70EE0002EA8BF3846BFF628AF94ED03
:10104000000B51EC100B81F00041C4E90001784223
:101050001DE7C6F3130040F4801EC6F30A50A0F249
:10106000F530471100F01F05C5F12000DDF848B04C
:1010700008900020069007900520EC467949002D45
:1010800007EB0002794408BF51F8221009D051F84B
:10109000223001EB8201AB404A68089922FA01F143
:1010A0001943A1FB0E26A1FB0B131A449A4234BF2D
:1010B0000123002303EB06080CEB8003D3E901A610
:1010C0000E448E4234BF0121002192448A4411B162
:1010D000924502D903E0924501D2012100E00021AE
:1010E000C3E901A641444CF82010011EA0F1010003
:1010F000C4DC029800F10050850F0298DDE9036717
:101100008000DDF81480FFF7FDFA41EC1A0B304641
:10111000FFF709FB9FED541B53EC112BFFF771F9FF
:1011200041EC1B0B3846FFF7FEFA9FED511B53ECC9
:10113000112BFFF766F941EC180B4046FFF7F3FA65
:101140009FED4D1B53EC112BFFF75BF941EC190B95
:1011500051EC180B53EC192BFFF7ACF853EC1B2B8D
:10116000FFF7A8F853EC1A2BFFF7A4F8CDE9080114
:10117000002008909DED080B53EC1A2B51EC100B3E
:10118000FFF739F953EC1B2BFFF735F953EC182B0C
:10119000FFF731F953EC192BFFF730F99FED381BAE
:1011A00053EC112BFFF72DF99FED370B41EC180B8A
:1011B00053EC102B9DED080B51EC100BFFF721F9B0
:1011C00053EC182BFFF776F89FED310B41EC180B21
:1011D00053EC102B9DED080B51EC100BFFF711F9A0
:1011E00053EC182BFFF766F841EC100B139810F036
:1011F000004F06D06D4251EC100B81F0004141ECE4
:10120000100B284684ED000B41E6000000000000B2
:101210000000000000000000FB21E93F7CD90240F3
:1012200000004054FB21F93F3163621A61B4D03DA4
:10123000FB21F93F000000000000601A61B4D03DBE
:101240007370032E8A19A33BFB2139410000000073
:1012500083C8C96D305FE43F000000000000E03F3C
:101260006A0B0000B80A0000000000000000103EF9
:10127000000000000000103C000000000000103AD8
:10128000182D4454FB21F93D3326A611460B113C81
:1012900000000054FB21F93D10B52DED040B2DEDA0
:1012A000088B82B0B0EE419AF0EE619A0B9820F074
:1012B00000449FED4BABB4F1795F11DA9DED0A0B61
:1012C00051EC100BFFF73CFA002801BFB0EE4A0AC0
:1012D000F0EE6A0A02B0BDEC088B04BF04B010BD8A
:1012E0009DED0A0B53EC102B51EC100BFFF789F816
:1012F00041EC180B3C480621B0EE480AF0EE680AB3
:10130000784400F081F853EC182B51EC100BFFF7E8
:1013100078F89DED0A0B41EC1B0B53EC192B51ECAB
:10132000100BFFF76EF841EC190B53EC1B2B51EC33
:10133000180BFFF766F853EC192BFFF75CF89FEDDD
:101340002C0B41EC190B53EC102B51EC180BFFF745
:1013500058F841EC100B2848844210DA53EC192B52
:1013600051EC100BFFF747F853EC1A2BFFF746F838
:1013700041EC100B02B0BDEC088B04B010BD1F484F
:10138000A042BCBF9FED1E1B8DED001B06DBA4F52C
:1013900000100190002000909DED001B51EC100BFF
:1013A00053EC112BFFF727F89DED000B41EC180BC8
:1013B00053EC102B51EC1A0BFFF71DF841EC1A0BF4
:1013C00053EC192B51EC180BFFF715F853EC1A2BB3
:1013D000FFF714F841EC100BCCE700000000000010
:1013E000000000000000F03FDC07000000000000EB
:1013F000000000000000E03F3333D33F0000E93F2E
:10140000000000000000D23F70B504462DED028BB5
:101410004D1E00EBC500B0EE408AF0EE608A90ED04
:10142000000B35F0060017D053EC182B51EC100BC5
:10143000FEF7E7FF41EC100B6D1E04EBC50090EDCD
:10144000001B51EC100B53EC112BFEF733FF41EC5A
:10145000100B35F00600E7D1022D36D0042D1CD03C
:10146000062D1CBFBDEC028B70BD53EC182B51EC4C
:10147000100BFEF7C6FF94ED0A1B53EC112BFEF781
:1014800019FF53EC182BFEF7BCFF94ED081B53EC2F
:10149000112BFEF70FFF41EC100B53EC182B51EC06
:1014A000100BFEF7AEFF94ED061B53EC112BFEF76D
:1014B00001FF53EC182BFEF7A4FF94ED040B53EC43
:1014C000102BFEF7F7FE41EC100B53EC182B51ECF0
:1014D000100BFEF796FF94ED021B53EC112BFEF759
:1014E000E9FE53EC182BFEF78CFF94ED001B53EC38
:1014F000112BFEF7DFFEBDEC028B41EC100B70BD33
:1015000031B504462DED040B2DED0A8BB0EE41BA3A
:10151000F0EE61BA0B989DED0A0B20F00040B0F19F
:10152000795F0DDA51EC100BFFF71BFC042808BFA4
:1015300000F09AF89DED0A0BBDEC0A8B05B030BDAA
:1015400053EC102B51EC100BFEF75BFF41EC180B2A
:101550009DED0A0B53EC182B51EC100BFEF751FFCD
:1015600041EC190B2C48B0EE480AF0EE680A052150
:101570007844FFF749FF9FED2ACBB0EE40AAF0EE8A
:1015800060AA9CB353EC1C2B51EC190BFEF739FFEE
:1015900041EC1C0B53EC1A2B51EC190BFEF731FFED
:1015A0009FED210B41EC190B53EC102B51EC1B0B55
:1015B000FEF727FF53EC192BFEF71DFF53EC182BFA
:1015C000FEF71FFF53EC1B2BFEF715FF53EC1C2BF4
:1015D000FEF711FF9DED0A1B53EC112BFEF70EFFDA
:1015E000BDEC0A8B05B041EC100B30BDFFE753ECAE
:1015F0001A2B51EC180BFEF704FF53EC1C2BFEF7D3
:1016000059FE53EC192BFEF7FCFE9DED0A1B53EC23
:10161000112BFEF74FFEE3E7640600000000000018
:10162000495555555555C5BF000000000000E03F25
:1016300010B553EC102B51EC100BFEF73BFE41ECB8
:10164000100B10BD000000009FED050B10B553EC12
:10165000102B51EC100BFEF746FF41EC100B10BDA8
:1016600000000000000000009FED050B10B553ECDA
:10167000102B51EC100BFEF7C4FE41EC100B10BD0B
:10168000000000000000001002E008C8121F08C19E
:10169000002AFAD170477047002001E001C1121FF3
:1016A000002AFBD170470000014908607047000024
:1016B000480000201248006840F08070104908601F
:1016C0000020104948600846006840F001000860AA
:1016D0000D4800680D49B0FBF1F000EE100AB8EEBD
:1016E000400A0B4880ED000A90ED000ADFED090A80
:1016F00080EE801ABCEEC10A074880ED000A7047F0
:10170000FCED00E0001000E01800002040420F0057
:101710003C0000200000704F4000002082B0CDE966
:10172000000121F0004001909DED000B02B051EC52
:10173000100B70471CB501212020FFF7D3F84FF4A0
:10174000C060009001208DF8040000208DF8060094
:1017500003208DF8050001208DF807006946044834
:10176000FFF710F84FF4C0610148FFF776F81CBD91
:10177000001402402DED048B82B0FFF79BFF4FF465
:10178000E13000F057F8FFF7D5FF254800F020F9C9
:1017900045E0244890ED000ADFED230A30EE200AF0
:1017A00080ED000A002421E01E48D0ED000A00EE82
:1017B000104AB8EEC00A30EE800A10EE101A084641
:1017C000FEF712FD41EC190BB0EE490AF0EE690A82
:1017D000FFF7E2FAB0EE408AF0EE608A51EC180BA7
:1017E000FEF715FD114941F82400641C082CDBDBD1
:1017F00008210E4800F01EF90BE09DF800001028AB
:1018000006D1BDF802200A480199FEF7DBFC00BFB3
:1018100000BF684600F07AF80028EED000BFB8E7B5
:101820000000002014000020CDCCCC3D4C05002051
:101830006C05002010B588B0044601210846FFF76A
:1018400051F801214804FFF75DF8072202212248E0
:10185000FEF7E0FF072203211F48FEF7DBFF0C2005
:10186000069002208DF81C008DF81D0000208DF8D8
:101870001E0001208DF81F0006A91748FEF782FF01
:1018800002940020ADF80C00ADF80E00ADF8100089
:10189000ADF814000C20ADF8120002A90F48FFF7B4
:1018A000EBF901210D48FFF77FF9012240F22551A4
:1018B0000A48FFF7BCF926208DF8040003208DF8B4
:1018C00005008DF8060001208DF8070001A8FEF73D
:1018D000CBFF08B010BD00000000024000440040F3
:1018E00070B505460E4600240BE000BF40210648B7
:1018F000FFF766F90028F9D0295D0348FFF72BFAB6
:10190000641CB442F1D370BD0044004030B50146C0
:101910002D48007808B9012030BD2C4800882B4B99
:101920009B891844294B9B8890FBF3F403FB14001C
:10193000264B188000209881184640881B88C21AC0
:10194000042A01DA0220E7E7002339E01F48806813
:101950001E4C2488005DAA280BD01C480088401C1F
:101960001A4CA48890FBF4F504FB1500174C20805A
:1019700025E0164884680088401C205C08701348E5
:1019800084680088801C245C104885680088C01C1E
:10199000285C04EB002048804888001D904201DD4F
:1019A0000220B9E709488068084C24882044001DBB
:1019B00048604888001D054CA0810020ACE75B1CF6
:1019C0009342C3DB0220A7E74400002080060020EA
:1019D00010B50446142221461348FEF7F3FB1248C3
:1019E0000068E0B110484068C8B10F480089B0B144
:1019F0000D48C06898B10C48008A80B100200B499E
:101A000008804880084800898880074840688860C6
:101A100000208881012006490870002010BD0020A8
:101A2000034908700120F9E76C06002080060020B9
:101A30004400002070B505460E46B40014480078F6
:101A400008B9012070BD1348018A201D814201DAC6
:101A50000120F7E7AA200F49C968087002200D4944
:101A6000C96848700B49C9688C70200A0949C9685F
:101A7000C8700849C968081D22462946FEF7A2FB1E
:101A8000231D99B2034BD8681A6890470020D9E704
:101A9000440000206C06002010B502460E48007875
:101AA00008B9012010BD0D484088401C0B4B9B8895
:101AB00090FBF3F403FB140081B2084800888842CD
:101AC00001D10320EEE705488068044B5B88C254CF
:101AD000024841800020E5E7440000208006002005
:101AE0004C5555555555A53F7751C1166CC156BF3C
:101AF0009015CB19A001FA3EAD529C804F7E92BE4C
:101B0000C4B1B4BD9EEE213ED43888BEE9FAA8BD6A
:101B100000004054FB21F93F3163621A61B4D03DAB
:101B20000000601A61B4D03D7370032E8A19A33B84
:101B30000000002E8A19A33BC14920259A837B39D6
:101B400000000000000000006E83F9A22915444E39
:101B5000D15727FCC0DD34F5999562DB4190433CB9
:101B6000AB6351FE61C5BBDE3A6E24B7E0D24D4295
:101B7000EA2E49061C92D1091CEB1DFE3EA729B195
:101B8000F53582E88444BB2E26709CE9417E5FB423
:101B900039D69139F43953838B5F849C3B28F9BD46
:101BA000FF97F81F0F9805DE8B112FEF1F6D0A5A54
:101BB000CF7E366DB709CB27663F464F2DEA5F9E35
:101BC000C7BA27757BF1E5EBF739073DEA92528AF0
:101BD000B15FFB6B085D8D1FA6F810111111813FDD
:101BE000D561C119A0012ABF7DFEB157E31DC73ED3
:101BF000EB9C2B8AE6E55ABE7CD5CF5A3AD9E53D17
:101C0000201C0008000000204C000000881600087E
:101C10006C1C00084C000020440A000098160008C4
:101C2000E11800084C000020000400004C040020D3
:101C30000001000000000000007A030A000000001C
:101C4000000000000102030406070809000000006C
:101C50000102030401020304060708090000000052
:0C1C600000000000000000000000000078
:040000050800018965
:00000001FF
