:020000040800F2
:1000000020040020C1010008850200083B0200080E
:100010008102000835020008C1030008000000004A
:10002000000000000000000000000000B302000813
:100030003902000800000000B1020008B502000803
:10004000DB010008DB010008DB010008DB01000820
:10005000DB010008DB010008DB010008DB01000810
:10006000DB010008DB010008DB010008DB01000800
:10007000DB010008DB010008DB010008DB010008F0
:10008000DB010008DB010008DB010008DB010008E0
:10009000DB010008DB010008DB010008DB010008D0
:1000A000DB010008DB010008DB010008DB010008C0
:1000B000DB010008DB010008DB010008DB010008B0
:1000C000DB010008DB010008DB010008DB010008A0
:1000D000DB010008A1030008DB010008DB010008C8
:1000E000DB010008DB010008DB010008DB01000880
:1000F000DB010008DB010008DB010008DB01000870
:10010000DB010008DB010008DB010008DB0100085F
:10011000DB010008DB010008DB010008DB0100084F
:10012000DB010008DB010008DB010008DB0100083F
:10013000DB010008DB010008DB010008DB0100082F
:10014000DB010008DB010008DB010008DB0100081F
:10015000DB010008DB010008DB010008DB0100080F
:10016000DB010008DB010008DB010008DB010008FF
:10017000DB010008DB010008DB01000800000000D3
:10018000DB010008DB010008DB010008DB010008DF
:10019000DB010008DB010008DB01000800000000B3
:1001A000DB010008DB010008DB010008DFF80CD0F0
:1001B00000F02EF8004800478906000820040020BF
:1001C0000648804706480047FEE7FEE7FEE7FEE7F1
:1001D000FEE7FEE7FEE7FEE7FEE7FEE7D9020008DE
:1001E000AD01000830B50B46014600202022012455
:1001F00009E021FA02F59D4205D303FA02F5491BF5
:1002000004FA02F52844151EA2F10102F1DC30BD0A
:10021000064C074D06E0E06840F0010394E8070053
:1002200098471034AC42F6D3FFF7C4FF600E0008C5
:10023000800E000800BFFEE7704700BFFEE7000029
:1002400010B54FF4FA610B4800F020FC0A49086031
:1002500008460068B0F57A7F05DD01228021074855
:1002600000F0B1F904E000228021044800F0ABF96D
:1002700010BD00000C00002010000020000C024007
:1002800000BFFEE77047000010B5002807DA0A0734
:10029000140E054A00F00F031B1FD45403E00A0795
:1002A000130E024A135410BD18ED00E000E400E004
:1002B000704770470648006820B105480068401E36
:1002C0000349086003480068401C02490860704701
:1002D000040000200000002008B52D48006840F40C
:1002E00070002B4908602B48006840F00100294944
:1002F000086028480830006840F08000254908312F
:1003000008600020009002E00098401C00904CF231
:10031000503100988842F7D31E480830006840F0FA
:1003200090001C49083108600020009002E000980D
:10033000401C00904CF2503100988842F7D3154889
:100340000830006820F003001249083108601148A5
:100350000068114908400F4908600846006820F409
:100360008020086000200B490831086000BF094860
:100370000830006800200028F9D108480549091D07
:100380000860002003490C31086000F053FB08BDF1
:1003900088ED00E000380240FFFFF6FE1030002438
:1003A00010B50549054800F006FD012802D10348B3
:1003B00000F000FC10BD0000050305000010014026
:1003C00000BFFEE70FB4054B10B503A9044A02981D
:1003D00000F018F810BC5DF814FB00005905000887
:1003E0001800002002E008C8121F08C1002AFAD134
:1003F00070477047002001E001C1121F002AFBD1A5
:10040000704700002DE9FF4F89B09B460446002548
:1004100006E025280BD05A460B999047641C6D1CAA
:1004200020780028F5D10DB02846BDE8F08F0027D0
:10043000B8460122474900E0074314F8013F203B3A
:1004400002FA03F00842F7D120782E2819D114F8C7
:10045000010F47F004072A280ED06FF02F022078F2
:10046000A0F1300109290CD808EB880102EB410109
:1004700000EB0108641CF2E70A98641C50F8048B36
:100480000A9020780028CED0642808D0692806D0A9
:1004900075281ED05A460B9990476D1C58E00A9952
:1004A0004FF00A0901C90A91002802DA40422D21C1
:1004B00002E0390504D52B218DF82010012103E03D
:1004C000F90704D02021F7E78A4608AE0DE00021A5
:1004D000FAE70A994FF00A0901C90A91F7E7494674
:1004E000FFF780FE303106F8011D0028F7D1ADEB93
:1004F000060000F12009780701D44FF00108C84533
:1005000002DDA8EB090000E000208046002706E09D
:1005100008A85A46C05D0B9990476D1C7F1C574533
:10052000F6DB04E030205A460B9990476D1CB8F179
:100530000001A8F10108F5DC05E016F8010B5A46A8
:100540000B9990476D1CB9F10001A9F10109F4DC88
:10055000641C65E70928010070B504460D46E0B249
:1005600000F056FC204670BDF0B503461C6A5D6A7B
:1005700000200DE00126864016403EB187000F2680
:10058000BE40B443860001FA06F63443461CB0B2BE
:100590000828EFD3082011E00126864016405EB1FE
:1005A000A0F10806B7000F26BE40B543A0F108062B
:1005B000B60001FA06F63543461CB0B21028EBD35C
:1005C0001C625D62F0BD0AB1816100E0816270472A
:1005D000F0B504460D4616462168E268002019E091
:1005E000012787401F409FB14FEA400C032707FABD
:1005F0000CF7B943470005FA07F739434FEA400CB7
:10060000032707FA0CF7BA43470006FA07F73A43FD
:10061000471CB8B21028E3D32160E260F0BDF0B50A
:100620000C461546012C03D146681E43466002E085
:1006300046689E434660826800210DE001268E4098
:100640001E403EB14F000326BE40B2434E0005FAA5
:1006500006F632434E1CB1B21029EFD38260F0BDD2
:1006600010B540F6034000F031F98023002201214B
:100670000448FFF7ADFF8023022200210148FFF765
:10068000CEFF10BD000C024000F0D8F9FFF7E8FFE4
:100690004FF4E13000F01AFB08E0FFF7D1FD044809
:1006A00002680448016804A0FFF78CFEF5E700002B
:1006B0000C0000201000002061203D2025642C202B
:1006C0006C656454696D65203D2025640D0A000049
:1006D0002DE9F04103460D46164600240027A046AA
:1006E0002A48006800F4E060B0F5E06F03D100BF75
:1006F0004FF0040830E02548006800F4E060B0F5F1
:10070000C06F03D101274FF0030825E01F480068A0
:1007100000F4E060B0F5A06F02D10227B8461BE0FC
:100720001A48006800F4E060B0F5806F03D1032739
:100730004FF0010810E01548006800F4E060B0F5E3
:10074000407F03D104274FF0000805E04FF4A0607C
:1007500000F020F80227B846C7F1040005FA00F4BB
:10076000C8F104010F20C840304004432401084868
:10077000C45403F01F01012088405911890001F180
:10078000E021C1F80001BDE8F08100000CED00E0BF
:1007900000E400E002490143024A11607047000092
:1007A0000000FA050CED00E02DE9F04F8CB0064694
:1007B00000200A903EA090E8004CC068CDE905BE3C
:1007C000CDF810A007900FF2EC0ADAE9000ACDE9A3
:1007D000020A0FF2E00ADAE9000ACDE9000A384815
:1007E0000068C0F381000B900B9820B1012804D061
:1007F000022828D103E0334927E0334925E0304877
:10080000001F006800F03F072D48001F0068C0F37C
:10081000881C2B48001F0068C0F30140401C4FEAB1
:1008200040092748001F006800F48008B8F5800FD1
:1008300001D1254B00E0234BB3FBF7F000FB0CF09C
:10084000B0FBF9F101E01F4900BF00BF1C48006880
:10085000C0F3031404A8055D21FA05F218480068E6
:10086000C0F3822402A8055D22FA05F0099014481D
:100870000068C0F342341DF8045022FA05F00890D5
:1008800036B1012E06D0022E06D0032E0AD106E084
:100890000A9108E00A9206E009980A9003E0089895
:1008A0000A9000E000BF00BF0A980CB0BDE8F08FCE
:1008B0000000000000000000010203040607080910
:1008C000083802400024F40040787D01074A02EB1A
:1008D0009011D1F8001800F01F0301229A40114333
:1008E000024B03EB9012C2F8001870470030024030
:1008F000074A02EB9011D1F8001800F01F03012203
:100900009A409143024B03EB9012C2F800187047D3
:1009100000300240074A02EB9011D1F8001800F0B5
:100920001F0301229A401143024B03EB9012C2F8BD
:100930000018704700300240002000213A4A126837
:1009400042F48032384B1A6000BF401C364A1268AD
:1009500002F4003119B94FF6FF729042F5D1324AD4
:10096000126802F400320AB900BFFEE72E4A403294
:10097000126842F080522C4B40331A602B4A1268A6
:1009800042F44042294B1A60274A08321268264B2B
:1009900008331A601A46126842F400421A601A4676
:1009A000126842F4A0521A60214A1B1F1A601A1FD3
:1009B000126842F080721B1F1A6000BF1A4A126848
:1009C00002F00072002AF9D0184A126842F480320C
:1009D000164B1A6000BF154A526802F48032002A92
:1009E000F9D0124A126842F40032104B1A6000BF6C
:1009F0000E4A526802F40032002AF9D00A4A08323C
:100A0000126822F00302084B08331A601A46126873
:100A100042F002021A6000BF034A0832126802F074
:100A20000802002AF8D070470038024000700040E9
:100A30001964400910B5FFF77FFF10BD10B51148CC
:100A400000681149B0FBF1F4601EB0F1807F01D362
:100A500001200FE0601E4FF0E02148610F214FF0B0
:100A6000FF30FFF711FC00204FF0E02188610720E4
:100A70000861002008B100BFFEE70021481EFFF713
:100A800003FC10BD1400002040420F0010B50246C8
:100A90000B460024106810B900F00EF8106000F04A
:100AA0000BF81168401A1C1A002C02DC00201060A0
:100AB00010BD2046FCE70000034800684FF47A713F
:100AC000B0FBF1F070470000000000202DE9F04776
:100AD00004460D460027B846B94600263349601A39
:100AE0008C4235D00CDC32482044E8B1B0F5806F40
:100AF0001FD0B0F5006F21D0B0F5406F32D122E0A9
:100B0000B0F5806F29D0B0F5184F03D0B0F51C4F69
:100B100028D104E00320FFF747FE074623E0032027
:100B2000FFF742FE07461EE00220FFF73DFE0746A4
:100B300019E00220FFF738FE074614E00220FFF715
:100B400033FE07460FE00220FFF72EFE07460AE0BD
:100B50000220FFF729FE074605E00220FFF724FEEA
:100B6000074600E000BF00BFE06800F4004070B13D
:100B7000780000EB5500B0FBF5F64FF6F07006EA92
:100B80000008C6F3420948EA0900A0600CE007EB40
:100B90005500B0FBF5F64FF6F07006EA000806F0D7
:100BA0000F0948EA0900A060BDE8F087007800401E
:100BB00000BCFFBF01464868C0F308007047C1F39E
:100BC000080242607047000010B504463349601ABD
:100BD0008C424DD00CDC32482044E0B1B0F5806F3F
:100BE00022D0B0F5006F31D0B0F5406F52D136E071
:100BF000B0F5806F45D0B0F5184F03D0B0F51C4F5D
:100C000048D11AE040F60410FFF784FE40F60410C5
:100C1000FFF76EFE3FE040F61100FFF77BFE40F667
:100C20001100FFF765FE36E040F61200FFF772FE96
:100C300040F61200FFF75CFE2DE040F60510FFF7CE
:100C400069FE40F60510FFF753FE24E040F613005E
:100C5000FFF760FE40F61300FFF74AFE1BE040F688
:100C60001400FFF757FE40F61400FFF741FE12E0B4
:100C700040F61E00FFF74EFE40F61E00FFF738FE5E
:100C800009E040F61F00FFF745FE40F61F00FFF7A2
:100C90002FFE00E000BF00BF10BD00000078004044
:100CA00000BCFFBFC16841F40051C160704710B57E
:100CB000024602EB9110006801F01F040123A340DB
:100CC000184008B1012010BD0020FCE710B5044613
:100CD0004FF44060FFF7FAFD4FF44060FFF7F6FD78
:100CE00041F20410FFF7F2FD4FF40072072129488A
:100CF000FFF73AFC4FF4806207212648FFF734FCE7
:100D00004FF40073012202212248FFF761FC4FF4E7
:100D10008063012202211F48FFF75AFC4FF4007341
:100D2000022200211B48FFF77AFC4FF48063022265
:100D300000211848FFF773FC1748FFF745FF2146CD
:100D40001548FFF7C3FE0021134800F050F80021BA
:100D5000114800F07DF800210F4800F069F80E48B6
:100D6000FFF7A0FF08210C4800F06AF804210A48A8
:100D700000F045F8022211462520FFF7A9FC40F2B9
:100D80000531054800F00AF84FF44171024800F0BF
:100D900005F810BD000002400010014010B500EB46
:100DA0009112126801F01F040123A3401A4300EBC3
:100DB00091131A6010BD70B5024600230024C1F3E0
:100DC0008910105801F01F060125B54000EA0503FF
:100DD00002EB91500068C1F304460125B54000EADA
:100DE000050414B10BB1012070BD0020FCE7C268FE
:100DF00022F4C062C260C2680A43C26070470A46F9
:100E00000021C16821F004011143C1607047000056
:100E100010B5044621460548FFF7D1FE00BF072163
:100E20000248FFF744FF0028F9D010BD0010014030
:100E3000026922F44052026102690A43026170476A
:100E40000A460021C16821F008011143C1607047C2
:100E5000C26822F48052C260C2680A43C26070470E
:100E6000800E0008000000201C000000E4030008C1
:100E70009C0E00081C00002004040000F40300087D
:100E80000000000000000000000000000000000062
:0C0E90000000000000C2EB0B000000009E
:04000005080001AD41
:00000001FF
